:020000041000EA
:1000000000B5324B212058609868022188439860DF
:10001000D860186158612E4B002199600221596106
:100020000121F02299502B49196001219960352056
:1000300000F044F80222904214D00621196600F024
:1000400034F8196E01211966002018661A6600F04E
:100050002CF8196E196E196E052000F02FF8012189
:100060000842F9D1002199601B49196000215960AB
:100070001A491B48016001219960EB211966A021F2
:10008000196600F012F800219960164914480160C1
:100090000121996001BC002800D000471248134993
:1000A000086003C880F30888084703B5996A0420EC
:1000B0000142FBD001200142F8D103BD02B5186610
:1000C0001866FFF7F2FF186E186E02BD00000240BE
:1000D000000000180000070000035F00212200005C
:1000E000F4000018222000A00001001008ED00E03C
:1000F00000000000000000000000000074B24E7A12
:1001000000200420F7010010C3010010C5010010F9
:10011000C1010010C1010010C1010010C101001097
:10012000C1010010C1010010C1010010C701001081
:10013000C1010010C1010010C9010010CB01001065
:10014000CD010010CD010010CD010010CD01001037
:10015000CD010010CD010010CD010010CD01001027
:10016000CD010010CD010010CD010010CD01001017
:10017000CD010010CD010010CD010010CD01001007
:10018000CD010010CD010010CD010010CD010010F7
:10019000CD010010CD010010CD010010CD010010E7
:1001A000CD010010CD010010CD010010CD010010D7
:1001B000CD010010CD010010CD010010CD010010C7
:1001C00000BE00BE00BE00BE00BE00BEEFF3058054
:1001D000103800BEF2EB8871602000107C20001007
:1001E0003402001090A31AE700201F49086006C8D7
:1001F00081F3088810471D48006800282FD10DA4FE
:100200000ECC002902D000F012F8F9E71849194A7B
:10021000002000E001C19142FCD1174988471749ED
:1002200088471749884700BEFDE701C901C29A42C5
:10023000FBD370477C200010C000002090030020FA
:100240004C23001000000420000004204C23001068
:10025000001004200010042000000000704709482E
:1002600001F0B6FB0047000008ED00E0000000D000
:1002700090030020600800204918001009030010B6
:100280003D1900105756000006005250ABB36053A2
:100290001420001006005250861C03022420001077
:1002A000060052505422A29D2C20001005005250EE
:1002B000DE65F4684C230010F8B5C04606480749CF
:1002C000091A8B10C90FC91810B5491003D0044B77
:1002D000002B00D0984710BD900300209003002011
:1002E00000000000054B10B5002B03D00449054861
:1002F00000E000BFFFF7E2FF10BDC04600000000B5
:1003000014080020B81F001070B5D02480251920D3
:100310002406AD0400F00CF86562FA2065618000E7
:1003200000F03AFDFA20A561800000F035FDF4E709
:100330000123D0228340120693629361094A40212F
:100340009446830063441A68C0004A4080311140DB
:100350008022520113431960034B9C4605236044DD
:100360004360704704C0014000400140024B1868E0
:100370008007C00F7047C04600C0064070B5EFF35D
:10038000108C72B60D4D2B68002BFCD0BFF35F8F25
:100390000724CB08C618C05C01230C40A3401C00F6
:1003A0000440034207D118433070BFF35F8F2C60C5
:1003B0008CF3108870BD100001F0C4FA2C0100D03D
:1003C0000021044B044ABFF35F8F02C39342FAD16A
:1003D0007047C046000100D0800100D0044A107868
:1003E000431CDBB2172B00D9102313707047C04693
:1003F000D802002001238340002904D0034A13605F
:10040000034A13607047034A1360FBE780E200E091
:1004100000E100E080E100E0024B10309B688000CA
:10042000C058704700ED00E070B50D00EFF3108686
:1004300072B60F4A1368002BFCD0BFF35F8F0D4BD1
:1004400010309B6884001B590B4A934203D09D4295
:1004500001D001F08FFA074B9B681D51BFF35F8FEE
:10046000BFF35F8F0022024B1A6086F3108870BDC5
:10047000240100D000ED00E0CD010010F0B5DE4613
:1004800057464E464546E0B50C0083B0EFF3108961
:1004900072B6584A1368002BFCD0BFF35F8F564BDF
:1004A0009A68030010339F00D559544A90469542EC
:1004B00032D0A54243D0524EAA1B2F2A2CD801225B
:1004C0008240924651464F4A12681140019151466E
:1004D0004D4A1160BFF35F8FEFF305829346002A08
:1004E00033D101232A009A4393689C4208D177E0D4
:1004F0004B005B189B00F3189968A1422AD01A00A0
:10050000062151560029F3DA019B002B19D05246DF
:100510003E4B1A603B4B1A60374B9B68DD51BFF373
:100520005F8FBFF35F8F0022324B1A6089F3108810
:1005300003B0F0BCBB46B246A946A046F0BD1500CC
:10054000EAE75246304B1A60E6E79342C9D001F021
:1005500011FAC6E706215956002921DB4A00501836
:10056000800034188046A0689860E079D871062031
:1005700020569871002824DBA488F01A64052415FD
:1005800044440019E0240005400D240220439880D3
:100590001F4B521818789200B21890711970B3E777
:1005A000594600290FD1FF3191711A49918018499C
:1005B0000A789A71184A9B1B5B415A43120D0A70C4
:1005C000A2E71648E3E7164A1649D21A083A50023B
:1005D000400D01439980144952080A43DA8093E799
:1005E0000621515613000029B8DA5A46002AEAD1EA
:1005F0004546DCE7240100D000ED00E0CD0100100D
:10060000DC02002000E100E080E100E080E200E0A8
:100610005E08002001BDFFFFAAAA000001BD000086
:100620001603002000F0FFFF00F8FFFF70B5EFF3A6
:10063000058101240443EFF3108C72B6214A13683C
:10064000002BFCD0BFF35F8F1F4B05001F4AED1A34
:100650006D416A43120D1E4D8900AE6852B2765844
:10066000A6421CD00621595691421CD0122159563F
:10067000914222D01E215956914220D02A2159560A
:100680000324914210D0134B19781A708171BFF373
:100690005F8F00220B4B1A608CF3108870BDAB6823
:1006A0000D4C5C50EFE700246100091989005B18CC
:1006B000FF21997109499980E5E70124F4E70224B3
:1006C000F2E7C046240100D0DC020020AAAA000004
:1006D00000ED00E05E080020CD01001001BDFFFF2D
:1006E000054B064A1360064A136053609360D3605B
:1006F00013615361936170478080808000E400E063
:1007000004E400E0024B9C466144890001607047AC
:100710004000003410B50400FFF760FE0100200027
:10072000FFF7F0FFFF232371BFF35F8F10BDC046BB
:1007300010B50400FFF752FE01002000FFF7E2FFB2
:10074000FF23A380BFF35F8F10BDC04683680B48B3
:1007500010B58446614462441201090159189B187E
:100760005C684A680120944201D802D00020C0B2DF
:1007700010BD1A680B689A42F9D8F7E7FFFFFF0F20
:100780000A4B1968EFF3108072B60A68002AFCD091
:10079000BFF35F8F1B68BFF35F8F00221A6080F387
:1007A000108840BF002000217047C0464808002044
:1007B000F8B5574645464E46DE46E0B599460CAB81
:1007C0001C780DAB1B78070090469A460568002CF4
:1007D00044D1AC7B002C3BD0660029683619033E1F
:1007E00089194B78AB73002B00D1EB7300238B700E
:1007F0004B700B702E4BE218BB6812019B184246DF
:100800001A604A465A600A9A9A600B9ADA60002384
:100810008B704B700B706B7B9B46002B32D0220091
:100820005946A8686B68984700281DD05B46584613
:1008300029685B005B448E19033BB070CA18CB5C1F
:10084000002B00D073705B4614706B735C451AD03C
:10085000F0BCBB46B246A946A046F8BD6600296872
:100860003619033E8919C5E75B465B002A685B447D
:10087000033BD3189C709119925D002A00D05A70E6
:100880005B460B706C7342464B46387D00F0A6FB0E
:10089000051E02D05346002B04D00E9B002BD7D050
:1008A0001D70D5E72100386800F0C8FDF5E7C046A7
:1008B000FFFFFF0FF0B5DE4657464E464546002384
:1008C000E0B58BB00893674B8200D45800239B4659
:1008D000099000F023FB626806000F00EFF310851B
:1008E00072B61368002BFCD0BFF35F8F23689C4661
:1008F0005B7B9946002B67D0A2685B4B90464B44CC
:100900001B01984443461A685B6810001900801B5D
:10091000B941002962DD099800F060FB0023002244
:10092000984600230692079300239A466368BFF314
:100930005F8F5A461A6085F310885346002B08D102
:100940000028C6D10BB0F0BCBB46B246A946A046B3
:10095000F0BD089B414618024B461843D0476268D9
:1009600006000F00EFF3108572B61368002BFCD061
:10097000BFF35F8F002F4EDB33003B4302D0236970
:10098000002B64D12368D97B002906D01A6848005F
:10099000411852184946033A51709A7B002A01D1F6
:1009A0004A469A734A46DA734B46E168013BCA5C91
:1009B0000132CA545B4623616368BFF35F8F5A46B6
:1009C0001A6085F3108884E70023002298460023EC
:1009D00006920793002300209A46A7E7002901D139
:1009E000002898D10021604600F0A6FC43461A6812
:1009F0005B680692079343469B689A464346DB68CA
:100A00009846E3684B44013B1B7808931B02034361
:100A1000236100208AE72369002BB3D0069A079B45
:100A20008021921BBB4109068B4202D301220F4B4E
:100A3000524259460491012103914946029141468F
:100A40000191514620000091FFF7B2FEB2E700F09D
:100A500065FA32003B0012184B41802109068B4297
:100A6000E7D3E3E72C080020FFFFFF0FFFFFFF7F26
:100A700010B5144C6368002B04D00A211248FFF70C
:100A800041FE10BD2300114A1021206800F068FBD0
:100A9000032000F037FA032000F010FB03200C497C
:100AA00000F056FAFFF79AFC0A4B9C460323237585
:100AB000D0231B061B6860446375074B8000606091
:100AC000DC60DAE724030020480800204D0700100E
:100AD000B5080010400000342C080020F0B54E4648
:100AE0005746DE464546E0B585B0019310AB1B780E
:100AF0000600039300239A46994600927268EFF32A
:100B0000108B72B61368002BFCD0BFF35F8F356873
:100B1000AC7B002C00D17AE067002B683F19033FC3
:100B2000DB195A78AA73002A00D1EA734B4AA1183C
:100B3000B2680901521800980199106051600E992D
:100B400091600F99D1604A469A705A701A706B7B07
:100B50009846002B00D171E022004146A8686B68DE
:100B6000984700285CD04346404629685B004344D0
:100B7000CF19033BB870CA18CB5C002B00D07B7038
:100B8000434614706B73444559D0F3681B19013BFD
:100B900018787368BFF35F8F4A461A608BF310882A
:100BA0005346002B08D10002204305B0F0BCBB46E1
:100BB000B246A946A046F0BD039B002B4CD00E9B2D
:100BC00000200F999847030004000D000B4343D009
:100BD000002911DA009A019B121BAB41009201938C
:100BE00080221206934204D301231D4C5B420093E2
:100BF0000194039B9A4681E700F090F98022241823
:100C00004D411206009401959542F2D3ECE77368CA
:100C1000BFF35F8F1C608BF3108801204042C4E754
:100C200043465B002A684344033BD3189C70D119A8
:100C3000D25D002A00D05A7043460B706C73307D31
:100C4000009A019B00F0CAF9824600289DD021003D
:100C5000306800F0F3FB98E70020A6E7FFFFFF0FE6
:100C6000FFFFFF7FF8B542680400EFF3108572B60E
:100C70001368002BFCD0BFF35F8F2068CEB2437B9C
:100C8000B34209D0FF220A4003685700BA189B18E4
:100C9000033B9B78002B12D0FF22E3680A409B188D
:100CA000013B090A1B78C9B28B420ED00020636851
:100CB000BFF35F8F00221A6085F31088F8BD2269A8
:100CC0008A42F3D100202361F1E7310000F0B6FB46
:100CD000EDE7C046F0B504000D0006267642F71792
:100CE000C64636196F4100B584B08F4214D811D072
:100CF00000F014F932003B00121A8B41002B15DC76
:100D0000002B3ED02000290000F012F904B080BC76
:100D1000B846F0BD8642EBD90026002700F0FEF869
:100D200032003B00121A8B41002BE9DD00230293B5
:100D30000193154B3200009314483B00FFF7CEFEA1
:100D40000028DFDB00239846BC46114A114F7B6A1E
:100D50009C4504D8B96A8E42D4D99C45D2D1116839
:100D6000EFF3108072B60B68002BFCD0BFF35F8FDF
:100D70001368BFF35F8F4146196080F3108820BF6E
:100D8000E5E7002ABED0D1E7810700102403002048
:100D9000480800200040054070B5060000F0BEF88D
:100DA000FA2204000D00002330000021920000F020
:100DB000C7FE8023001969411B06994202D3012016
:100DC00002494042FFF786FF70BDC046FFFFFF7F2C
:100DD00070B5EFF3058305000C0084B0002B0AD03A
:100DE000164A0020536A9C4203D8926A0130AA42F4
:100DF0001FD304B070BD124E02930193114B020039
:100E0000009330000B00FFF769FE011EE8DD20BFF4
:100E10003000FFF727FF094B00205A6A9442E8D8B8
:100E20009B6A0130AB42E4D2A41A631E9C41E0B23B
:100E3000DFE7E31A5A1E9341D8B2DAE700400540D3
:100E40002403002081070010F0B5EFF30582D64699
:100E50004F4646461000C0B51038EFF3108872B602
:100E6000214C2368002BFCD0BFF35F8F01231900B6
:100E700081401E4D1F006963AA461D4D29601D4D0E
:100E80002E78AC463500C5402F402B4209D1BFF328
:100E90005F8F276088F31088E0BCBA46B146A84649
:100EA000F0BD53465F6A144B8500EB589F420ED34A
:100EB0006246124B8E43EB581670BFF35F8F0022D1
:100EC000226088F31088002BE6D09847E4E70C4BAB
:100ED00092009C46624413681360BFF35F8F002347
:100EE000236088F31088D7E7280100D00040054030
:100EF0003C7005405F0800204C0800209006002050
:100F0000D03F054010B5034B01001800024AFFF71F
:100F100035FA10BD5D080020B81F0010034B596A58
:100F20000A00986A596A8A42FAD17047004005401F
:100F3000064A536A9942FCD807D1044B02E05A6A28
:100F4000914202D19A6A8242F9D37047004005402B
:100F500070B504000D00EFF3108672B61A4A1368DC
:100F6000002BFCD0BFF35F8F002D1BD02000FFF7BC
:100F700053FA164981420AD02000FFF755FA0121A1
:100F80002000FFF737FA0123A340114A1360114BE9
:100F9000A400E550BFF35F8F00220B4B1A6086F36D
:100FA000108870BD0121A1400A4BA200D5500A4B08
:100FB00020001A788A4305491A70FFF75FFA00216A
:100FC0002000FFF717FAE5E7280100D0490E0010CE
:100FD00038600540900600205F080020F0B54F46BD
:100FE000D6464646C0B507002F4C616A0D00A66A7A
:100FF000616AA942FAD18B4208D805D00120E0BC31
:10100000BA46B146A846F0BDB242F7D9EFF3108A0E
:1010100072B6264801680029FCD0BFF35F8F012516
:10102000BD402349204C8846097889462943C9B2E6
:101030008C46414660460870391D890065630A5137
:101040001C49B8004350216A0020294219D0616A26
:101050000800A66A616A8142FAD18B4219D801D18F
:10106000B24216D8CC451DD00F4B1F221D625D63C6
:1010700001233A409340104A0120136043464A46F8
:101080001A70BFF35F8F0022084B1A608AF3108832
:10109000B5E70020BFF35F8F0022044B1A608AF38C
:1010A0001088ACE70120ECE700400540280100D0A3
:1010B0005F0800204C08002080E200E0EFF3108C75
:1010C00072B60A490B68002BFCD0BFF35F8F012377
:1010D0008340074A0748136202789A430270BFF3BD
:1010E0005F8F00230B608CF310887047280100D0BD
:1010F000004005405F08002070B505001400160090
:10110000002915D00C00002A12D080686B6898471F
:10111000296800280ED073009B196200033B121946
:10112000CB18033A9C7088188A5C002A15D1067087
:10113000200070BD63001B197200033B9219CB188D
:10114000033A9E7088188A5C002A02D10470340029
:10115000EEE75A7004703400EAE75A700670E7E769
:1011600030B583600023CCB2437301330473426013
:101170008373C4730D000068012C06D9421C01332F
:10118000DBB2137003329C42F9D1FF2129404B009E
:101190005B18C01800230338437030BDF8B5050054
:1011A0000C1E07D0630001681B19033BCB185A784B
:1011B000002A01D12000F8BD50008018033809181A
:1011C00000204F784870210058702800FFF794FFE6
:1011D000390006002800FFF7E1FF0400002EE9D0E7
:1011E000002826D031002200A8686B68984729683B
:1011F00000280FD063001B197200033B9219CB1813
:10120000033A9E7088188A5C002A00D05A700470D5
:101210003400CFE773009B196200033B1219CB180F
:10122000033A9C7088188A5C002A00D05A700670B5
:10123000C0E73400BEE7C046F0B557464546DE4637
:101240004E46E0B50D006B0001685B19DF1E04001F
:10125000C85D83B00192CA19002850D043001B1802
:10126000033BCB185E78B446002E1AD1019E002EA7
:1012700042D0E67B002E04D073009B19CB18033BB1
:101280005D70A37B002B00D1A573E57300282FD1DF
:101290000023537003B0F0BCBB46B246A946A0463B
:1012A000F0BD72006244033A8A18517888460021E2
:1012B000517089465970320001002000FFF71CFF71
:1012C00043468246002B07D05B0021684344033B22
:1012D000CB185A78002A16D1424651462000FFF713
:1012E0000BFF2168019BCA19002BC2D10028CFD067
:1012F00043001B18033BCB1800219970C8E7019BE2
:10130000002BB6D1C4E7500080180338091848787C
:10131000834648464870587041462000FFF7ECFE6F
:10132000594680462000FFF739FF41460200200061
:10133000FFF7E2FE8046CFE7F0B557464546DE466A
:101340004E46E0B583B00191457B04006B00006818
:101350005B19DF1EC15DC219002952D04B005B181A
:10136000033BC3185E78B446002E1CD1019E002EAC
:1013700044D0E67B002E04D073009B19C318033BB6
:101380005D70A37B002B00D1A573E573002931D1DB
:10139000002328005370617303B0F0BCBB46B24613
:1013A000A946A046F0BD72006244033A8218507804
:1013B0008046002050708146587032002000FFF7B0
:1013C0009BFE43468246002B07D05B0021684344C6
:1013D000033BCB185A78002A17D1424651462000C9
:1013E000FFF78AFE019B01002068C219002BC0D1C3
:1013F0000029CDD04B005B18033BC3180020987028
:10140000C6E7019B002BB4D1C2E750008018033817
:10141000091848788346484648705870414620006D
:10142000FFF76AFE594680462000FFF7B7FE4146A7
:1014300002002000FFF760FE8046CEE770B5040092
:1014400000292CD0437B8B422ED0056848004018E1
:10145000033828188278002A21D053009B18033BB8
:10146000EA5CEE188A4202D11BE0002A08D0530041
:101470009B18033BEB185A788A42F6D142785A708F
:1014800000230122837043702000FFF7D5FE617BAB
:1014900002002000FFF730FE6073012000E0002012
:1014A00070BD43783370EBE701221900FFF7C4FEEB
:1014B00060730120F4E7C04610B50C2082B000F044
:1014C000A7F9FEF753FF00280ED0854B854A1A6016
:1014D0005A609A60DA601A615A619A61DA611A6236
:1014E000814A5A6202B010BD804CA06700F098F9A2
:1014F00001227F4B1A60636C012BFCD103227D4BD0
:101500001A607A4A936B012BFCD1013301217A4A8C
:101510007A480093043300F027F90523784A0093B2
:101520000121784800F020F9774B5A68FF2A02D849
:10153000802252005A6080226E4B694C12011A6060
:101540002169002905D0606900F074FA0130013882
:10155000FDD1E0226C4B6D4819680A4002600222FE
:101560001968514001320A40042102609A68114210
:10157000FCD08021664A09011160802252005A6025
:10158000644B2361644B5968FF2900D85A600322D9
:101590000121574B1A60604A93681942FCD0E0233E
:1015A000106803405D480360126803234A4002212B
:1015B0001340594A036093681942FCD08021584B6C
:1015C000090119608021574B490051606361564BF6
:1015D0005A68FF2A00D859608022544B12011A60C1
:1015E000E169002905D0606900F024FA0130013872
:1015F000FDD1E0234C4A11680B404D490B6080211E
:101600004C4B090119608021364B49005160E36160
:10161000494B5A68FF2A00D859608022474B120173
:101620001A60216A002905D0606900F003FA0130D0
:101630000138FDD1E023404A11680B4040490B605E
:101640008021404B0901196080235B005360802298
:10165000244BD20223623C4B5968914200D25A601B
:1016600080223A4B12011A60616A002905D0606934
:1016700000F0E0F901300138FDD1E023324A116871
:101680000B4033490B608021324B090119608023E4
:10169000DB025360144B63622F4B5A68FF2A02D857
:1016A000802252005A6080222C4B12011A60A169DC
:1016B000002905D0606900F0BDF901300138FDD185
:1016C000E023254A11680B4025490B608021254BFA
:1016D0000901196080235B005360124BA36101E78D
:1016E000A0070020006CDC021BB700000080004057
:1016F0003CB0004030B00040002F685900800240EC
:10170000008C864700C0024030800040309000408E
:1017100030A00040001BB7003C8000403C900040DF
:101720003CA00040405973075480004054B0004032
:101730005490004054A000406080004060B00040E1
:101740006090004060A000406C8000406CB00040A1
:101750006C9000406CA000404880004048B00040C1
:101760004890004048A00040F8B504000C20170045
:101770001D000E0000F05EF943011B1A9901C91A01
:10178000C90009188901380000F054F9069B2904A2
:101790001B0319432368002B20DB194B194DE31859
:1017A0005A4253418022520194461B03164A634415
:1017B0001360164A13601F00AA689743FBD1C02329
:1017C000221D9B01134321222660A0601A6022681B
:1017D000002AFCDA0822E1601A60F8BD3F23226883
:1017E0001340B342D9D1A3681B051B0D8342D4D14A
:1017F000EE22E368D20213408B42CED1EDE7C04621
:101800000040FDBF00C0004000E0004000F000408C
:101810008023024A9B000343D36270470080054047
:10182000AA23064A1B0113602F230549D360054BE9
:1018300019605368002BFCDA7047C0460040024034
:1018400000B0FA00006002402C4B2D4A70B51A60BF
:101850002C4A2D4B2D491A6014008B689C43FBD1F8
:101860002B4D2C4EB54208D2013E761BB60808CD52
:10187000984723000134B342F9D1FFF71DFE264AF1
:10188000214B1A60214A9368DB43DB01DD09002B01
:10189000F9D14022214B224C224E9A675A671A678F
:1018A000DA66B44208D223682000002B20D0083426
:1018B000FEF73EFFB442F6D31B4C1C4EC022B1686B
:1018C000200000F0ADF9B460FEF77AFDFEF708FFE6
:1018D000FFF7CEF8164C174EB44208D2013E361B25
:1018E000B60808CC98472B0001359E42F9D170BD4F
:1018F0000834FEF70FFFB442D5D3DDE700E0004027
:10190000BFCDFBFEFE7F3C0000F0004000C0004069
:101910007803002088030020FFFFFF0100F0014052
:1019200070030020780300200000002000ED00E09C
:10193000880300209003002000BEFDE710B5FFF7EC
:10194000FBFFC0460FB400B5084883B000F09CFA16
:10195000049B002B07D005A91800019100F018F88E
:10196000034800F091FA0120FFF7E6FFDC1F0010AA
:10197000EC1F001010B50148FFF7E4FFF01F001046
:1019800010B5002800D110BD00F032FAFBE7C046C8
:1019900010B5094A0300146884B0002C08D0012255
:1019A00000910648524203A9A047012004B010BD8F
:1019B00000F06AFA0020F9E71008002081190010F1
:1019C00001480421014B184750030020F119001071
:1019D000142310B50100188804331B88984710BDE4
:1019E000162310B50100188802331B88984710BDD4
:1019F000F8B54746CE4680B50F1E19D01423994638
:101A0000043304000025012698464B4618884346B7
:101A100021681B88984701C4431E98410135404204
:101A20000640AF42F1D13000C0BCB946B046F8BD67
:101A30000126F8E7114A936F9B0813D2106651668E
:101A4000002905D0FFE7FFE7FFE7516F106F7047F0
:101A500004B5002801D00020C04300F09DFA002109
:101A600004BDC046F0B5146E556E576F166FFFF784
:101A7000E5FF1466556657671667F0BD000000D095
:101A8000132370B51D78012D15D010DD1C48FFF70C
:101A9000A7FF1C4C01008022200000F0C1F8022D9D
:101AA00006D01948FFF794FF184B186070BD154C0D
:101AB000174BA364F5E7164B124C23606360A360D9
:101AC000E36023616361A361E36123626362A362F4
:101AD000E36223636363A363E36323646364A364D4
:101AE000E36423656365A365E36523666366A366B4
:101AF000E36623676367A367E367A364D1E7C04630
:101B000053440000900400204C330000440800209F
:101B1000151B001007B5604601880A0A0230DF2A4B
:101B2000FAD1C9B2820804D3028840880004104365
:101B300000E00068014A5050039007BD9004002067
:101B400051434343C9188C46110C83B24B4310B424
:101B5000040C614392B280B2504362431C041B0CDC
:101B6000001910BC59411304120CC01851416144B2
:101B700070470000132310B512481C78FFF730FFA0
:101B80000100012C0AD003DD80220F4800F048F844
:101B90000E48FFF71DFF0E4B186010BD0A4C542273
:101BA000200000F03DF80B4B6365A365E3652366F9
:101BB0006366A366E36623676367A367E3672362DD
:101BC000E361E5E753460000900500204C33000038
:101BD00044080020D91B001007B5604601880A0A96
:101BE0000230DF2AFAD1C9B2820804D302884088C1
:101BF0000004104300E00068014A5050039007BD04
:101C00009005002001480421014B18476003002083
:101C1000F1190010014B1B681847000060030020F9
:101C2000014B5B681847000060030020030010B5FB
:101C3000080011001B68984710BDC046F0B5464625
:101C40004F46D646C0B5437D80460E001700002B98
:101C500046D0002A3FDD4B1E9946244B0125002427
:101C600000209A460DE04B461B5D0D3B5A42534106
:101C7000325DDBB20A2A0BD02B00013401359F42C2
:101C80001ADD002CEFD14346325D1B7D0A2AF3D1C9
:101C9000002BF1D1A04204DA4346211A1B68301808
:101CA0009847434650461B68022198470134280054
:101CB0002B0001359F42E4DC874204DD4346391A9C
:101CC0001B6830189847F619013E33780D3B5A428D
:101CD000534142461375E0BCBA46B146A846F0BD32
:101CE0000368110030009847F5E7C0465C200010FB
:101CF000F0B5DE4657464E464546E0B585B017007E
:101D00001C0006000D00FFF709F90023314A1218E4
:101D10004B41802109068B4202D301222E4B5242B5
:101D20002E4908008A4600F03FF901906B1C03D150
:101D3000300000F0EFF80500002C25D1284B984624
:101D4000284B1C68002C15D0002F20D1264F02E014
:101D50002469002C0ED02368002BF9D03B68002B9F
:101D600001D0A342F4D120002A003100C0472469E9
:101D7000002CF0D1019B002B27D105B0F0BCBB4655
:101D8000B246A946A046F0BD184B9846D8E7164B78
:101D9000994602ABDF1D0A239B4602E02469002C12
:101DA000E8D02368002BF9D04B461B68002B01D0EC
:101DB000A342F3D12A0031002000C0475B46012234
:101DC000390020003B70C047E8E7504600F0DCF8DF
:101DD000D3E7C04640420F00FFFFFF7F70030020A3
:101DE0003D1C0010080800200C0800202D1C0010CD
:101DF000F0B5CE46474680B583B06B460600DD1D84
:101E00002870FFF78BF800231A4A12184B418021E3
:101E100009068B4202D30122174B52421749080090
:101E2000884600F0C1F8164B81461C68002C14D07F
:101E3000144F02E02469002C0FD02368002BF9D046
:101E40003B68002B01D0A342F4D1200001222900DD
:101E5000FFF7F4FE2469002CEFD14B46002B05D18F
:101E6000300003B0C0BCB946B046F0BD404600F0FB
:101E70008BF8F5E740420F00FFFFFF7F7003002063
:101E8000080800200C08002070B5040000F042F89B
:101E900000230100050001222000FFF729FF084B65
:101EA0001C68002C06D06368002B05D09847246975
:101EB000002CF8D1280070BD2469002CF3D1F9E77B
:101EC0000808002010B5024800F004F810BDC04614
:101ED0003C08002030B5002589B00400092200210B
:101EE00001A80095FFF796FE0922002105A8049598
:101EF000FFF790FE4B236A466846137004A90D2233
:101F000000F03AF81521082220006944FFF788FE06
:101F100009B030BD10B583070AD00300032102E0E9
:101F200001330B4205D01A78002AF9D1181A10BDD6
:101F3000030019680C4A0D4C8A188A4322420FD1BB
:101F40005968094A04338A188A43224208D15968D9
:101F5000054A04338A188A432242F1D000E0013353
:101F60001A78002AFBD1E1E7FFFEFEFE8080808028
:101F7000F8B5C0460000000001B40248844601BC28
:101F8000604700BFFD01002001B40248844601BC47
:101F9000604700BF5D01002001B40248844601BCD7
:101FA000604700BFC102002001B40248844601BC62
:081FB000604700BFC1000020E2
:101FB800486172647761726520616C61726D202579
:101FC8006420616C726561647920636C61696D6518
:101FD800640000000A2A2A2A2050414E4943202A38
:101FE8002A2A0A000A00000048617264206173739B
:101FF8006572740052656C6561736500626F6F7419
:10200800325F77323571303830000000312E352E8E
:10201800300000007069636F00000000746573741D
:10202800000000004A756E20313020323032330013
:1020380006005250BBFF3CB61C2000100600525050
:10204800E182887F0420001006005250D3F07542C8
:08205800FC1F00100D0A00003E
:10206000AC020010A00200109402001038200010F2
:0C207000880200104420001050200010D6
:10207C00F0B5C646150000B504001E000268EFF36B
:10208C00108172B61368002BFCD0BFF35F8F042352
:10209C00E356002B2DDB2268BFF35F8F002010600E
:1020AC0081F31088D0221206127852B290469A42CE
:1020BC0003D1002080BCB846F0BD00270BE023689C
:1020CC00BFF35F8F1F6081F310882800310000F090
:1020DC00D3F80028EDD12268EFF3108172B61368A3
:1020EC00002BFCD0BFF35F8F23797F2BE7D94346BE
:1020FC0002E0D0231B061B6823712368BFF35F8F9C
:10210C0000221A6081F310880120D3E70268EFF3F4
:10211C00108172B61368002BFCD0BFF35F8FFF23C6
:10212C0003710368BFF35F8F00221A6081F310887C
:10213C0040BF704710B5084C2378002B0AD1802380
:10214C00064807495B051A68C25004338B42FAD122
:10215C000123237010BDC0465C080020A0060010AF
:10216C000001001010B5024B0133984710BDC0465A
:10217C00A0060020034B1A68C0239B009343024A1D
:10218C00136070470C8001400C900140054B1A689D
:10219C0080239B005340C02292001340024A1360DC
:1021AC007047C0460C8001400C9001401423F0B5E0
:1021BC00D6464F4646469A46814618880433C0B5E3
:1021CC0098460E001B882749140098475346070071
:1021DC001888434624491B8898475346050018889D
:1021EC00434622491B8898478046FFF7A3FFB84710
:1021FC00A847FFF7CBFF002C1BD0C02122000827DB
:10220C00022049053D008B6A1D4018420BD0002C62
:10221C0009D0131B0D2B1FD84B461B78013C0B66AA
:10222C0001239C46E1442300002D0CD11343002BC9
:10223C00E8D1FFF79FFFC047FFF794FFE0BCBA4619
:10224C00B146A846F0BD002AF1D00B6E013A3370AE
:10225C00130001362343EAE7002DD3D0002AD1D056
:10226C00F3E7C046494600004558000046430000CD
:10227C007047C0460000000001B40248844601BC0F
:10228C00604700BFD10D00101000000000000000DE
:10229C00000001000000000000000000000002002F
:1022AC00000000000000000000000300000000001F
:1022BC00000000000000FF000000000001B54868AD
:1022CC0001318E460047704609380149884701BDE7
:1022DC002D0600103C03002000000000900300209D
:1022EC00C80700200000000000000000D8070020F4
:1022FC0000000000000000001000000000000000C2
:10230C00503300004C3300005433000052330000B3
:10231C004D5300004D430000533400004334000083
:10232C000000000000000000051C0010C119001086
:10233C00811A0010751B0010E5020010C51E00105C
:04000005100001E9FD
:00000001FF
